{
  "contractName": "Authentication",
  "abi": [
    {
      "inputs": [],
      "payable": false,
      "stateMutability": "nonpayable",
      "type": "constructor"
    },
    {
      "constant": false,
      "inputs": [
        {
          "internalType": "string",
          "name": "_firstName",
          "type": "string"
        },
        {
          "internalType": "string",
          "name": "_familyName",
          "type": "string"
        },
        {
          "internalType": "string",
          "name": "_typeUser",
          "type": "string"
        },
        {
          "internalType": "string",
          "name": "_password",
          "type": "string"
        }
      ],
      "name": "signUp",
      "outputs": [
        {
          "internalType": "bool",
          "name": "",
          "type": "bool"
        }
      ],
      "payable": false,
      "stateMutability": "nonpayable",
      "type": "function"
    },
    {
      "constant": true,
      "inputs": [],
      "name": "areYouAlreadySignUp",
      "outputs": [
        {
          "internalType": "bool",
          "name": "",
          "type": "bool"
        }
      ],
      "payable": false,
      "stateMutability": "view",
      "type": "function"
    },
    {
      "constant": true,
      "inputs": [
        {
          "internalType": "string",
          "name": "_password",
          "type": "string"
        }
      ],
      "name": "doesPasswordCorrect",
      "outputs": [
        {
          "internalType": "bool",
          "name": "",
          "type": "bool"
        }
      ],
      "payable": false,
      "stateMutability": "view",
      "type": "function"
    },
    {
      "constant": true,
      "inputs": [
        {
          "internalType": "string",
          "name": "_password",
          "type": "string"
        }
      ],
      "name": "logIn",
      "outputs": [
        {
          "internalType": "string",
          "name": "",
          "type": "string"
        },
        {
          "internalType": "string",
          "name": "",
          "type": "string"
        },
        {
          "internalType": "string",
          "name": "",
          "type": "string"
        },
        {
          "internalType": "string",
          "name": "",
          "type": "string"
        }
      ],
      "payable": false,
      "stateMutability": "view",
      "type": "function"
    },
    {
      "constant": true,
      "inputs": [
        {
          "internalType": "address",
          "name": "_addressStudent",
          "type": "address"
        }
      ],
      "name": "getStudentByAddress",
      "outputs": [
        {
          "internalType": "address",
          "name": "",
          "type": "address"
        },
        {
          "internalType": "string",
          "name": "",
          "type": "string"
        },
        {
          "internalType": "string",
          "name": "",
          "type": "string"
        }
      ],
      "payable": false,
      "stateMutability": "view",
      "type": "function"
    },
    {
      "constant": true,
      "inputs": [
        {
          "internalType": "uint256",
          "name": "_idCourse",
          "type": "uint256"
        }
      ],
      "name": "ifCourseExistsForStudent",
      "outputs": [
        {
          "internalType": "bool",
          "name": "",
          "type": "bool"
        }
      ],
      "payable": false,
      "stateMutability": "view",
      "type": "function"
    },
    {
      "constant": false,
      "inputs": [
        {
          "internalType": "uint256",
          "name": "_idCourse",
          "type": "uint256"
        },
        {
          "internalType": "uint256[]",
          "name": "_idQuestions",
          "type": "uint256[]"
        },
        {
          "internalType": "uint256[]",
          "name": "_idAnswers",
          "type": "uint256[]"
        }
      ],
      "name": "addNewCourseToStudent",
      "outputs": [
        {
          "internalType": "bool",
          "name": "_success",
          "type": "bool"
        }
      ],
      "payable": false,
      "stateMutability": "nonpayable",
      "type": "function"
    },
    {
      "constant": true,
      "inputs": [
        {
          "internalType": "uint256",
          "name": "_idCourse",
          "type": "uint256"
        }
      ],
      "name": "getQuestionsAnswersOfCourseForStudent",
      "outputs": [
        {
          "components": [
            {
              "internalType": "uint256",
              "name": "idQuestion",
              "type": "uint256"
            },
            {
              "internalType": "uint256",
              "name": "idAnswer",
              "type": "uint256"
            }
          ],
          "internalType": "struct Authentication.QuestionAnswer[]",
          "name": "",
          "type": "tuple[]"
        }
      ],
      "payable": false,
      "stateMutability": "view",
      "type": "function"
    },
    {
      "constant": true,
      "inputs": [],
      "name": "getIdCoursesOfStudent",
      "outputs": [
        {
          "internalType": "uint256[]",
          "name": "",
          "type": "uint256[]"
        }
      ],
      "payable": false,
      "stateMutability": "view",
      "type": "function"
    }
  ],
  "bytecode": "0x60806040523480156200001157600080fd5b50336000803373ffffffffffffffffffffffffffffffffffffffff1673ffffffffffffffffffffffffffffffffffffffff16815260200190815260200160002060000160006101000a81548173ffffffffffffffffffffffffffffffffffffffff021916908373ffffffffffffffffffffffffffffffffffffffff1602179055506040518060400160405280600581526020017f61646d696e0000000000000000000000000000000000000000000000000000008152506000803373ffffffffffffffffffffffffffffffffffffffff1673ffffffffffffffffffffffffffffffffffffffff16815260200190815260200160002060010190805190602001906200011e9291906200030d565b50604051806020016040528060008152506000803373ffffffffffffffffffffffffffffffffffffffff1673ffffffffffffffffffffffffffffffffffffffff1681526020019081526020016000206002019080519060200190620001859291906200030d565b506040518060400160405280600581526020017f61646d696e0000000000000000000000000000000000000000000000000000008152506000803373ffffffffffffffffffffffffffffffffffffffff1673ffffffffffffffffffffffffffffffffffffffff1681526020019081526020016000206003019080519060200190620002129291906200030d565b50604051806020016040528060008152506000803373ffffffffffffffffffffffffffffffffffffffff1673ffffffffffffffffffffffffffffffffffffffff1681526020019081526020016000206004019080519060200190620002799291906200030d565b506040518060400160405280600581526020017f61646d696e0000000000000000000000000000000000000000000000000000008152506000803373ffffffffffffffffffffffffffffffffffffffff1673ffffffffffffffffffffffffffffffffffffffff1681526020019081526020016000206005019080519060200190620003069291906200030d565b50620003bc565b828054600181600116156101000203166002900490600052602060002090601f016020900481019282601f106200035057805160ff191683800117855562000381565b8280016001018555821562000381579182015b828111156200038057825182559160200191906001019062000363565b5b50905062000390919062000394565b5090565b620003b991905b80821115620003b55760008160009055506001016200039b565b5090565b90565b6118c180620003cc6000396000f3fe608060405234801561001057600080fd5b50600436106100935760003560e01c80636c62bfad116100665780636c62bfad1461014957806371236ab0146101795780639f3da5cc14610197578063e146de35146101c9578063e452e722146101f957610093565b806327b0c6fb14610098578063589218f1146100c85780635d61b73b146100f857806362daa86d1461012b575b600080fd5b6100b260048036036100ad91908101906112b3565b610229565b6040516100bf91906115c6565b60405180910390f35b6100e260048036036100dd91908101906111f0565b6102ec565b6040516100ef919061160a565b60405180910390f35b610112600480360361010d91908101906111af565b61055d565b6040516101229493929190611625565b60405180910390f35b610133610998565b60405161014091906115e8565b60405180910390f35b610163600480360361015e91908101906112b3565b610a2d565b604051610170919061160a565b60405180910390f35b610181610afd565b60405161018e919061160a565b60405180910390f35b6101b160048036036101ac9190810190611186565b610ba5565b6040516101c093929190611581565b60405180910390f35b6101e360048036036101de91908101906112dc565b610dd3565b6040516101f0919061160a565b60405180910390f35b610213600480360361020e91908101906111af565b610f4d565b604051610220919061160a565b60405180910390f35b6060600260003373ffffffffffffffffffffffffffffffffffffffff1673ffffffffffffffffffffffffffffffffffffffff1681526020019081526020016000206000838152602001908152602001600020805480602002602001604051908101604052809291908181526020016000905b828210156102e15783829060005260206000209060020201604051806040016040529081600082015481526020016001820154815250508152602001906001019061029b565b505050509050919050565b6000336000803373ffffffffffffffffffffffffffffffffffffffff1673ffffffffffffffffffffffffffffffffffffffff16815260200190815260200160002060000160006101000a81548173ffffffffffffffffffffffffffffffffffffffff021916908373ffffffffffffffffffffffffffffffffffffffff160217905550816000803373ffffffffffffffffffffffffffffffffffffffff1673ffffffffffffffffffffffffffffffffffffffff16815260200190815260200160002060010190805190602001906103c3929190610fc6565b50846000803373ffffffffffffffffffffffffffffffffffffffff1673ffffffffffffffffffffffffffffffffffffffff1681526020019081526020016000206002019080519060200190610419929190610fc6565b50836000803373ffffffffffffffffffffffffffffffffffffffff1673ffffffffffffffffffffffffffffffffffffffff168152602001908152602001600020600301908051906020019061046f929190610fc6565b50826000803373ffffffffffffffffffffffffffffffffffffffff1673ffffffffffffffffffffffffffffffffffffffff16815260200190815260200160002060040190805190602001906104c5929190610fc6565b506040518060400160405280600681526020017f73696d706c6500000000000000000000000000000000000000000000000000008152506000803373ffffffffffffffffffffffffffffffffffffffff1673ffffffffffffffffffffffffffffffffffffffff1681526020019081526020016000206005019080519060200190610550929190610fc6565b5060019050949350505050565b60608060608084805190602001206000803373ffffffffffffffffffffffffffffffffffffffff1673ffffffffffffffffffffffffffffffffffffffff1681526020019081526020016000206001016040516105b9919061156a565b60405180910390201415610948576000803373ffffffffffffffffffffffffffffffffffffffff1673ffffffffffffffffffffffffffffffffffffffff1681526020019081526020016000206002016000803373ffffffffffffffffffffffffffffffffffffffff1673ffffffffffffffffffffffffffffffffffffffff1681526020019081526020016000206003016000803373ffffffffffffffffffffffffffffffffffffffff1673ffffffffffffffffffffffffffffffffffffffff1681526020019081526020016000206004016000803373ffffffffffffffffffffffffffffffffffffffff1673ffffffffffffffffffffffffffffffffffffffff168152602001908152602001600020600501838054600181600116156101000203166002900480601f0160208091040260200160405190810160405280929190818152602001828054600181600116156101000203166002900480156107605780601f1061073557610100808354040283529160200191610760565b820191906000526020600020905b81548152906001019060200180831161074357829003601f168201915b50505050509350828054600181600116156101000203166002900480601f0160208091040260200160405190810160405280929190818152602001828054600181600116156101000203166002900480156107fc5780601f106107d1576101008083540402835291602001916107fc565b820191906000526020600020905b8154815290600101906020018083116107df57829003601f168201915b50505050509250818054600181600116156101000203166002900480601f0160208091040260200160405190810160405280929190818152602001828054600181600116156101000203166002900480156108985780601f1061086d57610100808354040283529160200191610898565b820191906000526020600020905b81548152906001019060200180831161087b57829003601f168201915b50505050509150808054600181600116156101000203166002900480601f0160208091040260200160405190810160405280929190818152602001828054600181600116156101000203166002900480156109345780601f1061090957610100808354040283529160200191610934565b820191906000526020600020905b81548152906001019060200180831161091757829003601f168201915b505050505090509350935093509350610991565b6040518060200160405280600081525060405180602001604052806000815250604051806020016040528060008152506040518060200160405280600081525093509350935093505b9193509193565b6060600160003373ffffffffffffffffffffffffffffffffffffffff1673ffffffffffffffffffffffffffffffffffffffff168152602001908152602001600020805480602002602001604051908101604052809291908181526020018280548015610a2357602002820191906000526020600020905b815481526020019060010190808311610a0f575b5050505050905090565b600080600090505b600160003373ffffffffffffffffffffffffffffffffffffffff1673ffffffffffffffffffffffffffffffffffffffff16815260200190815260200160002080549050811015610af25782600160003373ffffffffffffffffffffffffffffffffffffffff1673ffffffffffffffffffffffffffffffffffffffff1681526020019081526020016000208281548110610aca57fe5b90600052602060002001541415610ae5576001915050610af8565b8080600101915050610a35565b50600090505b919050565b60003373ffffffffffffffffffffffffffffffffffffffff166000803373ffffffffffffffffffffffffffffffffffffffff1673ffffffffffffffffffffffffffffffffffffffff16815260200190815260200160002060000160009054906101000a900473ffffffffffffffffffffffffffffffffffffffff1673ffffffffffffffffffffffffffffffffffffffff161415610b9d5760019050610ba2565b600090505b90565b60006060806000808573ffffffffffffffffffffffffffffffffffffffff1673ffffffffffffffffffffffffffffffffffffffff16815260200190815260200160002060000160009054906101000a900473ffffffffffffffffffffffffffffffffffffffff166000808673ffffffffffffffffffffffffffffffffffffffff1673ffffffffffffffffffffffffffffffffffffffff1681526020019081526020016000206002016000808773ffffffffffffffffffffffffffffffffffffffff1673ffffffffffffffffffffffffffffffffffffffff168152602001908152602001600020600301818054600181600116156101000203166002900480601f016020809104026020016040519081016040528092919081815260200182805460018160011615610100020316600290048015610d235780601f10610cf857610100808354040283529160200191610d23565b820191906000526020600020905b815481529060010190602001808311610d0657829003601f168201915b50505050509150808054600181600116156101000203166002900480601f016020809104026020016040519081016040528092919081815260200182805460018160011615610100020316600290048015610dbf5780601f10610d9457610100808354040283529160200191610dbf565b820191906000526020600020905b815481529060010190602001808311610da257829003601f168201915b505050505090509250925092509193909250565b6000610dde84610a2d565b610e4c57600160003373ffffffffffffffffffffffffffffffffffffffff1673ffffffffffffffffffffffffffffffffffffffff1681526020019081526020016000208490806001815401808255809150509060018203906000526020600020016000909192909190915055505b60008090505b8351811015610f4157610e63611046565b6040518060400160405280868481518110610e7a57fe5b60200260200101518152602001858481518110610e9357fe5b60200260200101518152509050600260003373ffffffffffffffffffffffffffffffffffffffff1673ffffffffffffffffffffffffffffffffffffffff168152602001908152602001600020600087815260200190815260200160002081908060018154018082558091505090600182039060005260206000209060020201600090919290919091506000820151816000015560208201518160010155505050508080600101915050610e52565b50600190509392505050565b600081805190602001206000803373ffffffffffffffffffffffffffffffffffffffff1673ffffffffffffffffffffffffffffffffffffffff168152602001908152602001600020600101604051610fa5919061156a565b60405180910390201415610fbc5760019050610fc1565b600090505b919050565b828054600181600116156101000203166002900490600052602060002090601f016020900481019282601f1061100757805160ff1916838001178555611035565b82800160010185558215611035579182015b82811115611034578251825591602001919060010190611019565b5b5090506110429190611060565b5090565b604051806040016040528060008152602001600081525090565b61108291905b8082111561107e576000816000905550600101611066565b5090565b90565b60008135905061109481611850565b92915050565b600082601f8301126110ab57600080fd5b81356110be6110b9826116b3565b611686565b915081818352602084019350602081019050838560208402820111156110e357600080fd5b60005b8381101561111357816110f98882611171565b8452602084019350602083019250506001810190506110e6565b5050505092915050565b600082601f83011261112e57600080fd5b813561114161113c826116db565b611686565b9150808252602083016020830185838301111561115d57600080fd5b6111688382846117fd565b50505092915050565b60008135905061118081611867565b92915050565b60006020828403121561119857600080fd5b60006111a684828501611085565b91505092915050565b6000602082840312156111c157600080fd5b600082013567ffffffffffffffff8111156111db57600080fd5b6111e78482850161111d565b91505092915050565b6000806000806080858703121561120657600080fd5b600085013567ffffffffffffffff81111561122057600080fd5b61122c8782880161111d565b945050602085013567ffffffffffffffff81111561124957600080fd5b6112558782880161111d565b935050604085013567ffffffffffffffff81111561127257600080fd5b61127e8782880161111d565b925050606085013567ffffffffffffffff81111561129b57600080fd5b6112a78782880161111d565b91505092959194509250565b6000602082840312156112c557600080fd5b60006112d384828501611171565b91505092915050565b6000806000606084860312156112f157600080fd5b60006112ff86828701611171565b935050602084013567ffffffffffffffff81111561131c57600080fd5b6113288682870161109a565b925050604084013567ffffffffffffffff81111561134557600080fd5b6113518682870161109a565b9150509250925092565b6000611367838361152c565b60408301905092915050565b600061137f838361155b565b60208301905092915050565b611394816117b5565b82525050565b60006113a58261173c565b6113af8185611777565b93506113ba83611707565b8060005b838110156113eb5781516113d2888261135b565b97506113dd8361175d565b9250506001810190506113be565b5085935050505092915050565b600061140382611747565b61140d8185611788565b935061141883611717565b8060005b838110156114495781516114308882611373565b975061143b8361176a565b92505060018101905061141c565b5085935050505092915050565b61145f816117c7565b82525050565b60008154600181166000811461148257600181146114a7576114eb565b607f60028304166114938187611799565b955060ff19831686528086019350506114eb565b600282046114b58187611799565b95506114c085611727565b60005b828110156114e2578154818901526001820191506020810190506114c3565b82880195505050505b505092915050565b60006114fe82611752565b61150881856117a4565b935061151881856020860161180c565b6115218161183f565b840191505092915050565b604082016000820151611542600085018261155b565b506020820151611555602085018261155b565b50505050565b611564816117f3565b82525050565b60006115768284611465565b915081905092915050565b6000606082019050611596600083018661138b565b81810360208301526115a881856114f3565b905081810360408301526115bc81846114f3565b9050949350505050565b600060208201905081810360008301526115e0818461139a565b905092915050565b6000602082019050818103600083015261160281846113f8565b905092915050565b600060208201905061161f6000830184611456565b92915050565b6000608082019050818103600083015261163f81876114f3565b9050818103602083015261165381866114f3565b9050818103604083015261166781856114f3565b9050818103606083015261167b81846114f3565b905095945050505050565b6000604051905081810181811067ffffffffffffffff821117156116a957600080fd5b8060405250919050565b600067ffffffffffffffff8211156116ca57600080fd5b602082029050602081019050919050565b600067ffffffffffffffff8211156116f257600080fd5b601f19601f8301169050602081019050919050565b6000819050602082019050919050565b6000819050602082019050919050565b60008190508160005260206000209050919050565b600081519050919050565b600081519050919050565b600081519050919050565b6000602082019050919050565b6000602082019050919050565b600082825260208201905092915050565b600082825260208201905092915050565b600081905092915050565b600082825260208201905092915050565b60006117c0826117d3565b9050919050565b60008115159050919050565b600073ffffffffffffffffffffffffffffffffffffffff82169050919050565b6000819050919050565b82818337600083830152505050565b60005b8381101561182a57808201518184015260208101905061180f565b83811115611839576000848401525b50505050565b6000601f19601f8301169050919050565b611859816117b5565b811461186457600080fd5b50565b611870816117f3565b811461187b57600080fd5b5056fea365627a7a7231582082fe6a3059627f4cd4726201a0b990e85dc6ab94ec493eab49efea648a85a3556c6578706572696d656e74616cf564736f6c63430005100040",
  "source": "pragma solidity >=0.4.22 <0.9.0;\r\npragma experimental ABIEncoderV2;\r\n\r\n\r\ncontract Authentication  {\r\n\r\n    struct QuestionAnswer {\r\n        uint idQuestion;\r\n        uint idAnswer;\r\n    }\r\n\r\n    struct User{\r\n        address addressAccount;\r\n        string password;\r\n        string firstName;\r\n        string familyName;\r\n        string typeUser;\r\n        string role;\r\n    }\r\n\r\n    mapping (address => User) private users;\r\n    mapping (address => uint[]) private keysCourses;\r\n    mapping (address => mapping (uint => QuestionAnswer[])) private questionsAnswers;\r\n\r\n    constructor () public {\r\n        users[msg.sender].addressAccount = msg.sender;\r\n        users[msg.sender].password = \"admin\";\r\n        users[msg.sender].firstName = \"\";\r\n        users[msg.sender].familyName = \"admin\";\r\n        users[msg.sender].typeUser = \"\";\r\n        users[msg.sender].role = \"admin\";\r\n    }\r\n\r\n    //    Users ---------------------------------------------------------\r\n\r\n    function signUp(string memory _firstName, string memory _familyName, string memory _typeUser, string memory _password)\r\n    public returns (bool) {\r\n        users[msg.sender].addressAccount = msg.sender;\r\n        users[msg.sender].password = _password;\r\n        users[msg.sender].firstName = _firstName;\r\n        users[msg.sender].familyName = _familyName;\r\n        users[msg.sender].typeUser = _typeUser;\r\n        users[msg.sender].role = \"simple\";\r\n        return true;\r\n    }\r\n\r\n    function areYouAlreadySignUp() public view returns (bool) {\r\n        if(users[msg.sender].addressAccount == msg.sender) return true;\r\n        return false;\r\n    }\r\n\r\n    function doesPasswordCorrect(string memory _password) public view returns (bool) {\r\n        if(keccak256(bytes(users[msg.sender].password)) == keccak256(bytes(_password))) return true;\r\n        return false;\r\n    }\r\n\r\n    function logIn(string memory _password) public view returns(string memory, string memory, string memory, string memory) {\r\n        if(keccak256(bytes(users[msg.sender].password)) == keccak256(bytes(_password))) {\r\n            return (users[msg.sender].firstName, users[msg.sender].familyName, users[msg.sender].typeUser, users[msg.sender].role);\r\n        }\r\n        return (\"\", \"\", \"\", \"\");\r\n    }\r\n\r\n    function getStudentByAddress(address _addressStudent) public view returns(address, string memory, string memory){\r\n        return (users[_addressStudent].addressAccount, users[_addressStudent].firstName, users[_addressStudent].familyName);\r\n    }\r\n\r\n    //    Courses ---------------------------------------------------------\r\n\r\n    function ifCourseExistsForStudent(uint _idCourse) public view returns(bool){\r\n        for(uint i = 0; i < keysCourses[msg.sender].length; i++){\r\n            if(keysCourses[msg.sender][i] == _idCourse) return true;\r\n        }\r\n        return false;\r\n    }\r\n\r\n    function addNewCourseToStudent(uint _idCourse, uint[] memory _idQuestions, uint[] memory _idAnswers) public returns(bool _success){\r\n        if(!ifCourseExistsForStudent(_idCourse)) keysCourses[msg.sender].push(_idCourse);\r\n        for(uint i = 0; i < _idQuestions.length; i++){\r\n            QuestionAnswer memory questionAnswer = QuestionAnswer({idQuestion: _idQuestions[i], idAnswer: _idAnswers[i]});\r\n            questionsAnswers[msg.sender][_idCourse].push(questionAnswer);\r\n        }\r\n        return true;\r\n    }\r\n\r\n    function getQuestionsAnswersOfCourseForStudent(uint _idCourse) public view returns(QuestionAnswer[] memory){\r\n        return questionsAnswers[msg.sender][_idCourse];\r\n    }\r\n\r\n    function getIdCoursesOfStudent() public view returns(uint[] memory){\r\n        return keysCourses[msg.sender];\r\n    }\r\n}\r\n",
  "sourcePath": "C:\\Users\\mehta\\OneDrive\\Desktop\\final\\CodeShasatra_Syndicate1\\contracts\\Authentication.sol",
  "compiler": {
    "name": "solc",
    "version": "0.5.16+commit.9c3226ce.Emscripten.clang"
  },
  "schemaVersion": "3.4.16",
  "updatedAt": "2024-03-31T01:44:27.464Z",
  "networkType": "ethereum",
  "devdoc": {
    "methods": {}
  },
  "userdoc": {
    "methods": {}
  }
}