{
  "contractName": "Courses",
  "abi": [
    {
      "inputs": [],
      "payable": false,
      "stateMutability": "nonpayable",
      "type": "constructor"
    },
    {
      "constant": false,
      "inputs": [
        {
          "internalType": "string",
          "name": "_title",
          "type": "string"
        },
        {
          "internalType": "string",
          "name": "_resume",
          "type": "string"
        },
        {
          "internalType": "string",
          "name": "_urlPdf",
          "type": "string"
        },
        {
          "internalType": "string",
          "name": "_urlImage",
          "type": "string"
        }
      ],
      "name": "newCourse",
      "outputs": [
        {
          "internalType": "bool",
          "name": "_success",
          "type": "bool"
        }
      ],
      "payable": false,
      "stateMutability": "nonpayable",
      "type": "function"
    },
    {
      "constant": true,
      "inputs": [],
      "name": "ifCoursesIsEmpty",
      "outputs": [
        {
          "internalType": "bool",
          "name": "_success",
          "type": "bool"
        }
      ],
      "payable": false,
      "stateMutability": "view",
      "type": "function"
    },
    {
      "constant": false,
      "inputs": [
        {
          "internalType": "uint256",
          "name": "_idCourse",
          "type": "uint256"
        },
        {
          "internalType": "string",
          "name": "_question",
          "type": "string"
        },
        {
          "internalType": "string[]",
          "name": "_answers",
          "type": "string[]"
        },
        {
          "internalType": "bool[]",
          "name": "_flags",
          "type": "bool[]"
        }
      ],
      "name": "addQuestionWithAnswersToCourse",
      "outputs": [
        {
          "internalType": "bool",
          "name": "_success",
          "type": "bool"
        }
      ],
      "payable": false,
      "stateMutability": "nonpayable",
      "type": "function"
    },
    {
      "constant": true,
      "inputs": [],
      "name": "getCourses",
      "outputs": [
        {
          "components": [
            {
              "internalType": "uint256",
              "name": "idCourse",
              "type": "uint256"
            },
            {
              "internalType": "string",
              "name": "title",
              "type": "string"
            },
            {
              "internalType": "string",
              "name": "resume",
              "type": "string"
            },
            {
              "internalType": "string",
              "name": "urlPdf",
              "type": "string"
            },
            {
              "internalType": "string",
              "name": "urlImage",
              "type": "string"
            },
            {
              "internalType": "uint256",
              "name": "timestamp",
              "type": "uint256"
            }
          ],
          "internalType": "struct Courses.Course[]",
          "name": "",
          "type": "tuple[]"
        }
      ],
      "payable": false,
      "stateMutability": "view",
      "type": "function"
    },
    {
      "constant": true,
      "inputs": [
        {
          "internalType": "uint256",
          "name": "_idCourse",
          "type": "uint256"
        }
      ],
      "name": "getCourseById",
      "outputs": [
        {
          "components": [
            {
              "internalType": "uint256",
              "name": "idCourse",
              "type": "uint256"
            },
            {
              "internalType": "string",
              "name": "title",
              "type": "string"
            },
            {
              "internalType": "string",
              "name": "resume",
              "type": "string"
            },
            {
              "internalType": "string",
              "name": "urlPdf",
              "type": "string"
            },
            {
              "internalType": "string",
              "name": "urlImage",
              "type": "string"
            },
            {
              "internalType": "uint256",
              "name": "timestamp",
              "type": "uint256"
            }
          ],
          "internalType": "struct Courses.Course",
          "name": "",
          "type": "tuple"
        }
      ],
      "payable": false,
      "stateMutability": "view",
      "type": "function"
    },
    {
      "constant": true,
      "inputs": [
        {
          "internalType": "uint256",
          "name": "_idCourse",
          "type": "uint256"
        }
      ],
      "name": "ifThereIsQuestion",
      "outputs": [
        {
          "internalType": "bool",
          "name": "",
          "type": "bool"
        }
      ],
      "payable": false,
      "stateMutability": "view",
      "type": "function"
    },
    {
      "constant": true,
      "inputs": [
        {
          "internalType": "uint256",
          "name": "_idCourse",
          "type": "uint256"
        }
      ],
      "name": "getQuestionsOfCourse",
      "outputs": [
        {
          "internalType": "string[]",
          "name": "",
          "type": "string[]"
        }
      ],
      "payable": false,
      "stateMutability": "view",
      "type": "function"
    },
    {
      "constant": true,
      "inputs": [
        {
          "internalType": "uint256",
          "name": "_idCourse",
          "type": "uint256"
        },
        {
          "internalType": "uint256",
          "name": "_indexQuestion",
          "type": "uint256"
        }
      ],
      "name": "getAnswersOfQuestion",
      "outputs": [
        {
          "components": [
            {
              "internalType": "string",
              "name": "text",
              "type": "string"
            },
            {
              "internalType": "bool",
              "name": "flag",
              "type": "bool"
            }
          ],
          "internalType": "struct Courses.Answer[]",
          "name": "",
          "type": "tuple[]"
        }
      ],
      "payable": false,
      "stateMutability": "view",
      "type": "function"
    },
    {
      "constant": true,
      "inputs": [
        {
          "internalType": "uint256",
          "name": "_idCourse",
          "type": "uint256"
        }
      ],
      "name": "getAddressesCertifiedStudentsByCourseID",
      "outputs": [
        {
          "internalType": "address[]",
          "name": "",
          "type": "address[]"
        }
      ],
      "payable": false,
      "stateMutability": "view",
      "type": "function"
    },
    {
      "constant": true,
      "inputs": [
        {
          "internalType": "uint256",
          "name": "_idCourse",
          "type": "uint256"
        },
        {
          "internalType": "address",
          "name": "_address",
          "type": "address"
        }
      ],
      "name": "ifAlreadyCertified",
      "outputs": [
        {
          "internalType": "bool",
          "name": "",
          "type": "bool"
        }
      ],
      "payable": false,
      "stateMutability": "view",
      "type": "function"
    },
    {
      "constant": false,
      "inputs": [
        {
          "internalType": "uint256",
          "name": "_idCourse",
          "type": "uint256"
        },
        {
          "internalType": "address",
          "name": "_adrStudent",
          "type": "address"
        }
      ],
      "name": "addAddressCertifiedStudent",
      "outputs": [
        {
          "internalType": "bool",
          "name": "_success",
          "type": "bool"
        }
      ],
      "payable": false,
      "stateMutability": "nonpayable",
      "type": "function"
    }
  ],
  "bytecode": "0x608060405234801561001057600080fd5b5060008081905550611cff806100276000396000f3fe608060405234801561001057600080fd5b50600436106100a95760003560e01c806394ef0a8c1161007157806394ef0a8c1461018c578063a29fd148146101bc578063b0ff97c5146101ec578063cc1264791461021c578063cff1c1db1461023a578063ea5b210f1461026a576100a9565b806343cdb7ce146100ae57806345e1e6e9146100de5780634a12a9b61461010e5780636048dbdc1461013e5780638bea7ff31461016e575b600080fd5b6100c860048036036100c391908101906113f7565b61029a565b6040516100d59190611942565b60405180910390f35b6100f860048036036100f39190810190611420565b61033b565b60405161010591906119ca565b60405180910390f35b61012860048036036101239190810190611420565b610400565b60405161013591906119ca565b60405180910390f35b61015860048036036101539190810190611507565b610492565b6040516101659190611986565b60405180910390f35b6101766105d3565b60405161018391906119ca565b60405180910390f35b6101a660048036036101a191908101906113f7565b6105f0565b6040516101b391906119ca565b60405180910390f35b6101d660048036036101d191908101906113f7565b610623565b6040516101e39190611964565b60405180910390f35b6102066004803603610201919081019061145c565b61071f565b60405161021391906119ca565b60405180910390f35b610224610891565b60405161023191906119a8565b60405180910390f35b610254600480360361024f9190810190611334565b610bd8565b60405161026191906119ca565b60405180910390f35b610284600480360361027f91908101906113f7565b610ce0565b60405161029191906119e5565b60405180910390f35b60606004600083815260200190815260200160002080548060200260200160405190810160405280929190818152602001828054801561032f57602002820191906000526020600020905b8160009054906101000a900473ffffffffffffffffffffffffffffffffffffffff1673ffffffffffffffffffffffffffffffffffffffff16815260200190600101908083116102e5575b50505050509050919050565b600080600090505b60046000858152602001908152602001600020805490508110156103f4578273ffffffffffffffffffffffffffffffffffffffff1660046000868152602001908152602001600020828154811061039657fe5b9060005260206000200160009054906101000a900473ffffffffffffffffffffffffffffffffffffffff1673ffffffffffffffffffffffffffffffffffffffff1614156103e75760019150506103fa565b8080600101915050610343565b50600090505b92915050565b600061040c838361033b565b61048857600460008481526020019081526020016000208290806001815401808255809150509060018203906000526020600020016000909192909190916101000a81548173ffffffffffffffffffffffffffffffffffffffff021916908373ffffffffffffffffffffffffffffffffffffffff160217905550505b6001905092915050565b6060600360008481526020019081526020016000206000838152602001908152602001600020805480602002602001604051908101604052809291908181526020016000905b828210156105c75783829060005260206000209060020201604051806040016040529081600082018054600181600116156101000203166002900480601f0160208091040260200160405190810160405280929190818152602001828054600181600116156101000203166002900480156105945780601f1061056957610100808354040283529160200191610594565b820191906000526020600020905b81548152906001019060200180831161057757829003601f168201915b505050505081526020016001820160009054906101000a900460ff161515151581525050815260200190600101906104d8565b50505050905092915050565b60008060005411156105e857600090506105ed565b600190505b90565b60008060026000848152602001908152602001600020805490501115610619576001905061061e565b600090505b919050565b606060026000838152602001908152602001600020805480602002602001604051908101604052809291908181526020016000905b82821015610714578382906000526020600020018054600181600116156101000203166002900480601f0160208091040260200160405190810160405280929190818152602001828054600181600116156101000203166002900480156107005780601f106106d557610100808354040283529160200191610700565b820191906000526020600020905b8154815290600101906020018083116106e357829003601f168201915b505050505081526020019060010190610658565b505050509050919050565b60006002600086815260200190815260200160002084908060018154018082558091505090600182039060005260206000200160009091929091909150908051906020019061076f929190610fa9565b505060006001600260008881526020019081526020016000208054905003905060008090505b8451811015610883576107a6611029565b60405180604001604052808784815181106107bd57fe5b602002602001015181526020018684815181106107d657fe5b60200260200101511515815250905060036000898152602001908152602001600020600084815260200190815260200160002081908060018154018082558091505090600182039060005260206000209060020201600090919290919091506000820151816000019080519060200190610851929190611045565b5060208201518160010160006101000a81548160ff021916908315150217905550505050508080600101915050610795565b506001915050949350505050565b6060806000546040519080825280602002602001820160405280156108d057816020015b6108bd6110c5565b8152602001906001900390816108b55790505b50905060008090505b6000548160ff161015610bd0576000600160008360ff1681526020019081526020016000209050806040518060c001604052908160008201548152602001600182018054600181600116156101000203166002900480601f0160208091040260200160405190810160405280929190818152602001828054600181600116156101000203166002900480156109af5780601f10610984576101008083540402835291602001916109af565b820191906000526020600020905b81548152906001019060200180831161099257829003601f168201915b50505050508152602001600282018054600181600116156101000203166002900480601f016020809104026020016040519081016040528092919081815260200182805460018160011615610100020316600290048015610a515780601f10610a2657610100808354040283529160200191610a51565b820191906000526020600020905b815481529060010190602001808311610a3457829003601f168201915b50505050508152602001600382018054600181600116156101000203166002900480601f016020809104026020016040519081016040528092919081815260200182805460018160011615610100020316600290048015610af35780601f10610ac857610100808354040283529160200191610af3565b820191906000526020600020905b815481529060010190602001808311610ad657829003601f168201915b50505050508152602001600482018054600181600116156101000203166002900480601f016020809104026020016040519081016040528092919081815260200182805460018160011615610100020316600290048015610b955780601f10610b6a57610100808354040283529160200191610b95565b820191906000526020600020905b815481529060010190602001808311610b7857829003601f168201915b50505050508152602001600582015481525050838360ff1681518110610bb757fe5b60200260200101819052505080806001019150506108d9565b508091505090565b600080546001600080548152602001908152602001600020600001819055508460016000805481526020019081526020016000206001019080519060200190610c22929190610fa9565b508360016000805481526020019081526020016000206002019080519060200190610c4e929190610fa9565b508260016000805481526020019081526020016000206003019080519060200190610c7a929190610fa9565b508160016000805481526020019081526020016000206004019080519060200190610ca6929190610fa9565b5042600160008054815260200190815260200160002060050181905550600080815480929190600101919050555060019050949350505050565b610ce86110fb565b600160008381526020019081526020016000206040518060c001604052908160008201548152602001600182018054600181600116156101000203166002900480601f016020809104026020016040519081016040528092919081815260200182805460018160011615610100020316600290048015610da95780601f10610d7e57610100808354040283529160200191610da9565b820191906000526020600020905b815481529060010190602001808311610d8c57829003601f168201915b50505050508152602001600282018054600181600116156101000203166002900480601f016020809104026020016040519081016040528092919081815260200182805460018160011615610100020316600290048015610e4b5780601f10610e2057610100808354040283529160200191610e4b565b820191906000526020600020905b815481529060010190602001808311610e2e57829003601f168201915b50505050508152602001600382018054600181600116156101000203166002900480601f016020809104026020016040519081016040528092919081815260200182805460018160011615610100020316600290048015610eed5780601f10610ec257610100808354040283529160200191610eed565b820191906000526020600020905b815481529060010190602001808311610ed057829003601f168201915b50505050508152602001600482018054600181600116156101000203166002900480601f016020809104026020016040519081016040528092919081815260200182805460018160011615610100020316600290048015610f8f5780601f10610f6457610100808354040283529160200191610f8f565b820191906000526020600020905b815481529060010190602001808311610f7257829003601f168201915b505050505081526020016005820154815250509050919050565b828054600181600116156101000203166002900490600052602060002090601f016020900481019282601f10610fea57805160ff1916838001178555611018565b82800160010185558215611018579182015b82811115611017578251825591602001919060010190610ffc565b5b5090506110259190611131565b5090565b6040518060400160405280606081526020016000151581525090565b828054600181600116156101000203166002900490600052602060002090601f016020900481019282601f1061108657805160ff19168380011785556110b4565b828001600101855582156110b4579182015b828111156110b3578251825591602001919060010190611098565b5b5090506110c19190611131565b5090565b6040518060c001604052806000815260200160608152602001606081526020016060815260200160608152602001600081525090565b6040518060c001604052806000815260200160608152602001606081526020016060815260200160608152602001600081525090565b61115391905b8082111561114f576000816000905550600101611137565b5090565b90565b60008135905061116581611c77565b92915050565b600082601f83011261117c57600080fd5b813561118f61118a82611a34565b611a07565b915081818352602084019350602081019050838560208402820111156111b457600080fd5b60005b838110156111e457816111ca8882611262565b8452602084019350602083019250506001810190506111b7565b5050505092915050565b600082601f8301126111ff57600080fd5b813561121261120d82611a5c565b611a07565b9150818183526020840193506020810190508360005b83811015611258578135860161123e8882611277565b845260208401935060208301925050600181019050611228565b5050505092915050565b60008135905061127181611c8e565b92915050565b600082601f83011261128857600080fd5b813561129b61129682611a84565b611a07565b915080825260208301602083018583830111156112b757600080fd5b6112c2838284611c24565b50505092915050565b600082601f8301126112dc57600080fd5b81356112ef6112ea82611ab0565b611a07565b9150808252602083016020830185838301111561130b57600080fd5b611316838284611c24565b50505092915050565b60008135905061132e81611ca5565b92915050565b6000806000806080858703121561134a57600080fd5b600085013567ffffffffffffffff81111561136457600080fd5b611370878288016112cb565b945050602085013567ffffffffffffffff81111561138d57600080fd5b611399878288016112cb565b935050604085013567ffffffffffffffff8111156113b657600080fd5b6113c2878288016112cb565b925050606085013567ffffffffffffffff8111156113df57600080fd5b6113eb878288016112cb565b91505092959194509250565b60006020828403121561140957600080fd5b60006114178482850161131f565b91505092915050565b6000806040838503121561143357600080fd5b60006114418582860161131f565b925050602061145285828601611156565b9150509250929050565b6000806000806080858703121561147257600080fd5b60006114808782880161131f565b945050602085013567ffffffffffffffff81111561149d57600080fd5b6114a9878288016112cb565b935050604085013567ffffffffffffffff8111156114c657600080fd5b6114d2878288016111ee565b925050606085013567ffffffffffffffff8111156114ef57600080fd5b6114fb8782880161116b565b91505092959194509250565b6000806040838503121561151a57600080fd5b60006115288582860161131f565b92505060206115398582860161131f565b9150509250929050565b600061154f8383611597565b60208301905092915050565b60006115678383611781565b905092915050565b600061157b83836117ba565b905092915050565b600061158f8383611895565b905092915050565b6115a081611bdc565b82525050565b60006115b182611b1c565b6115bb8185611b87565b93506115c683611adc565b8060005b838110156115f75781516115de8882611543565b97506115e983611b53565b9250506001810190506115ca565b5085935050505092915050565b600061160f82611b27565b6116198185611b98565b93508360208202850161162b85611aec565b8060005b858110156116675784840389528151611648858261155b565b945061165383611b60565b925060208a0199505060018101905061162f565b50829750879550505050505092915050565b600061168482611b32565b61168e8185611ba9565b9350836020820285016116a085611afc565b8060005b858110156116dc57848403895281516116bd858261156f565b94506116c883611b6d565b925060208a019950506001810190506116a4565b50829750879550505050505092915050565b60006116f982611b3d565b6117038185611bba565b93508360208202850161171585611b0c565b8060005b8581101561175157848403895281516117328582611583565b945061173d83611b7a565b925060208a01995050600181019050611719565b50829750879550505050505092915050565b61176c81611bee565b82525050565b61177b81611bee565b82525050565b600061178c82611b48565b6117968185611bcb565b93506117a6818560208601611c33565b6117af81611c66565b840191505092915050565b600060408301600083015184820360008601526117d78282611781565b91505060208301516117ec6020860182611763565b508091505092915050565b600060c08301600083015161180f6000860182611933565b50602083015184820360208601526118278282611781565b915050604083015184820360408601526118418282611781565b9150506060830151848203606086015261185b8282611781565b915050608083015184820360808601526118758282611781565b91505060a083015161188a60a0860182611933565b508091505092915050565b600060c0830160008301516118ad6000860182611933565b50602083015184820360208601526118c58282611781565b915050604083015184820360408601526118df8282611781565b915050606083015184820360608601526118f98282611781565b915050608083015184820360808601526119138282611781565b91505060a083015161192860a0860182611933565b508091505092915050565b61193c81611c1a565b82525050565b6000602082019050818103600083015261195c81846115a6565b905092915050565b6000602082019050818103600083015261197e8184611604565b905092915050565b600060208201905081810360008301526119a08184611679565b905092915050565b600060208201905081810360008301526119c281846116ee565b905092915050565b60006020820190506119df6000830184611772565b92915050565b600060208201905081810360008301526119ff81846117f7565b905092915050565b6000604051905081810181811067ffffffffffffffff82111715611a2a57600080fd5b8060405250919050565b600067ffffffffffffffff821115611a4b57600080fd5b602082029050602081019050919050565b600067ffffffffffffffff821115611a7357600080fd5b602082029050602081019050919050565b600067ffffffffffffffff821115611a9b57600080fd5b601f19601f8301169050602081019050919050565b600067ffffffffffffffff821115611ac757600080fd5b601f19601f8301169050602081019050919050565b6000819050602082019050919050565b6000819050602082019050919050565b6000819050602082019050919050565b6000819050602082019050919050565b600081519050919050565b600081519050919050565b600081519050919050565b600081519050919050565b600081519050919050565b6000602082019050919050565b6000602082019050919050565b6000602082019050919050565b6000602082019050919050565b600082825260208201905092915050565b600082825260208201905092915050565b600082825260208201905092915050565b600082825260208201905092915050565b600082825260208201905092915050565b6000611be782611bfa565b9050919050565b60008115159050919050565b600073ffffffffffffffffffffffffffffffffffffffff82169050919050565b6000819050919050565b82818337600083830152505050565b60005b83811015611c51578082015181840152602081019050611c36565b83811115611c60576000848401525b50505050565b6000601f19601f8301169050919050565b611c8081611bdc565b8114611c8b57600080fd5b50565b611c9781611bee565b8114611ca257600080fd5b50565b611cae81611c1a565b8114611cb957600080fd5b5056fea365627a7a72315820a67d5959a388a2b157f97792a4d4dca755518e54c85184e45eb3a34f70a001846c6578706572696d656e74616cf564736f6c63430005100040",
  "source": "pragma solidity >=0.4.22 <0.9.0;\r\npragma experimental ABIEncoderV2;\r\n\r\n\r\ncontract Courses {\r\n\r\n    struct Course {\r\n        uint idCourse;\r\n        string title;\r\n        string resume;\r\n        string urlPdf;\r\n        string urlImage;\r\n        uint timestamp;\r\n    }\r\n\r\n    constructor () public {\r\n        nbrCourses = 0;\r\n    }\r\n\r\n    struct Answer {\r\n        string text;\r\n        bool flag;\r\n    }\r\n\r\n    uint private nbrCourses;\r\n    mapping (uint => Course) private courses;\r\n    mapping (uint => string[]) private questions;\r\n    mapping (uint => mapping (uint => Answer[])) answers;\r\n    mapping (uint => address[]) private certifiedStudents;\r\n\r\n    function newCourse (string memory _title, string memory _resume, string memory _urlPdf, string memory _urlImage) public returns (bool _success){\r\n        courses[nbrCourses].idCourse = nbrCourses;\r\n        courses[nbrCourses].title = _title;\r\n        courses[nbrCourses].resume = _resume;\r\n        courses[nbrCourses].urlPdf = _urlPdf;\r\n        courses[nbrCourses].urlImage = _urlImage;\r\n        courses[nbrCourses].timestamp = block.timestamp;\r\n        nbrCourses++;\r\n        return true;\r\n    }\r\n\r\n    function ifCoursesIsEmpty() public view returns (bool _success) {\r\n        if(nbrCourses > 0) return false;\r\n        return true;\r\n    }\r\n\r\n    function addQuestionWithAnswersToCourse(uint _idCourse, string memory _question, string[] memory _answers, bool[] memory _flags)\r\n    public\r\n    returns(bool _success){\r\n        questions[_idCourse].push(_question);\r\n        uint indexQuestion = questions[_idCourse].length - 1;\r\n        for(uint i = 0; i < _answers.length; i++){\r\n            Answer memory answer = Answer({text: _answers[i], flag: _flags[i]});\r\n            answers[_idCourse][indexQuestion].push(answer);\r\n        }\r\n        return true;\r\n    }\r\n\r\n    function getCourses() public view returns (Course[] memory){\r\n        Course[] memory arrCourses = new Course[](nbrCourses);\r\n        for(uint8 i = 0; i < nbrCourses; i++){\r\n            Course storage course = courses[i];\r\n            arrCourses[i] = course;\r\n        }\r\n        return arrCourses;\r\n    }\r\n\r\n    function getCourseById(uint _idCourse) public view returns (Course memory){\r\n        return courses[_idCourse];\r\n    }\r\n\r\n    function ifThereIsQuestion(uint _idCourse) public view returns(bool){\r\n        if(questions[_idCourse].length > 0) return true;\r\n        return false;\r\n    }\r\n\r\n    function getQuestionsOfCourse(uint _idCourse) public view returns(string[] memory){\r\n        return questions[_idCourse];\r\n    }\r\n\r\n    function getAnswersOfQuestion(uint _idCourse, uint _indexQuestion) public view returns(Answer[] memory){\r\n        return answers[_idCourse][_indexQuestion];\r\n    }\r\n\r\n    function getAddressesCertifiedStudentsByCourseID(uint _idCourse) public view returns(address[] memory){\r\n        return certifiedStudents[_idCourse];\r\n    }\r\n\r\n    function ifAlreadyCertified(uint _idCourse, address _address) view public returns(bool){\r\n        for(uint i = 0; i < certifiedStudents[_idCourse].length; i++){\r\n            if(certifiedStudents[_idCourse][i] == _address) return true;\r\n        }\r\n        return false;\r\n    }\r\n\r\n    function addAddressCertifiedStudent(uint _idCourse, address _adrStudent) public returns(bool _success){\r\n        if(!ifAlreadyCertified(_idCourse, _adrStudent)) certifiedStudents[_idCourse].push(_adrStudent);\r\n        return true;\r\n    }\r\n}\r\n",
  "sourcePath": "C:\\Users\\mehta\\OneDrive\\Desktop\\final\\CodeShasatra_Syndicate1\\contracts\\Courses.sol",
  "compiler": {
    "name": "solc",
    "version": "0.5.16+commit.9c3226ce.Emscripten.clang"
  },
  "schemaVersion": "3.4.16",
  "updatedAt": "2024-03-31T01:44:27.776Z",
  "networkType": "ethereum",
  "devdoc": {
    "methods": {}
  },
  "userdoc": {
    "methods": {}
  }
}