{
  "contractName": "Authentication",
  "abi": [
    {
      "inputs": [],
      "stateMutability": "nonpayable",
      "type": "constructor"
    },
    {
      "inputs": [],
      "name": "nbrUsers",
      "outputs": [
        {
          "internalType": "uint256",
          "name": "",
          "type": "uint256"
        }
      ],
      "stateMutability": "view",
      "type": "function",
      "constant": true
    },
    {
      "inputs": [
        {
          "internalType": "string",
          "name": "_password",
          "type": "string"
        },
        {
          "internalType": "string",
          "name": "_firstName",
          "type": "string"
        },
        {
          "internalType": "string",
          "name": "_familyName",
          "type": "string"
        },
        {
          "internalType": "string",
          "name": "_typeUser",
          "type": "string"
        }
      ],
      "name": "signUp",
      "outputs": [
        {
          "internalType": "address",
          "name": "",
          "type": "address"
        },
        {
          "internalType": "string",
          "name": "",
          "type": "string"
        },
        {
          "internalType": "string",
          "name": "",
          "type": "string"
        },
        {
          "internalType": "string",
          "name": "",
          "type": "string"
        }
      ],
      "stateMutability": "nonpayable",
      "type": "function"
    }
  ],
  "bytecode": "0x608060405234801561001057600080fd5b506000808190555061088c806100276000396000f3fe608060405234801561001057600080fd5b50600436106100365760003560e01c8063237720611461003b578063589218f114610059575b600080fd5b61004361008c565b604051610050919061041a565b60405180910390f35b610073600480360381019061006e919061058f565b610092565b604051610083949392919061072f565b60405180910390f35b60005481565b600060608060603373ffffffffffffffffffffffffffffffffffffffff16600160003373ffffffffffffffffffffffffffffffffffffffff1673ffffffffffffffffffffffffffffffffffffffff16815260200190815260200160002060000160009054906101000a900473ffffffffffffffffffffffffffffffffffffffff1673ffffffffffffffffffffffffffffffffffffffff16141561016a576040517f08c379a0000000000000000000000000000000000000000000000000000000008152600401610161906107d5565b60405180910390fd5b33600160003373ffffffffffffffffffffffffffffffffffffffff1673ffffffffffffffffffffffffffffffffffffffff16815260200190815260200160002060000160006101000a81548173ffffffffffffffffffffffffffffffffffffffff021916908373ffffffffffffffffffffffffffffffffffffffff16021790555087600160003373ffffffffffffffffffffffffffffffffffffffff1673ffffffffffffffffffffffffffffffffffffffff168152602001908152602001600020600101908051906020019061024192919061035e565b5086600160003373ffffffffffffffffffffffffffffffffffffffff1673ffffffffffffffffffffffffffffffffffffffff168152602001908152602001600020600201908051906020019061029892919061035e565b5085600160003373ffffffffffffffffffffffffffffffffffffffff1673ffffffffffffffffffffffffffffffffffffffff16815260200190815260200160002060030190805190602001906102ef92919061035e565b5084600160003373ffffffffffffffffffffffffffffffffffffffff1673ffffffffffffffffffffffffffffffffffffffff168152602001908152602001600020600401908051906020019061034692919061035e565b50338787879350935093509350945094509450949050565b82805461036a90610824565b90600052602060002090601f01602090048101928261038c57600085556103d3565b82601f106103a557805160ff19168380011785556103d3565b828001600101855582156103d3579182015b828111156103d25782518255916020019190600101906103b7565b5b5090506103e091906103e4565b5090565b5b808211156103fd5760008160009055506001016103e5565b5090565b6000819050919050565b61041481610401565b82525050565b600060208201905061042f600083018461040b565b92915050565b6000604051905090565b600080fd5b600080fd5b600080fd5b600080fd5b6000601f19601f8301169050919050565b7f4e487b7100000000000000000000000000000000000000000000000000000000600052604160045260246000fd5b61049c82610453565b810181811067ffffffffffffffff821117156104bb576104ba610464565b5b80604052505050565b60006104ce610435565b90506104da8282610493565b919050565b600067ffffffffffffffff8211156104fa576104f9610464565b5b61050382610453565b9050602081019050919050565b82818337600083830152505050565b600061053261052d846104df565b6104c4565b90508281526020810184848401111561054e5761054d61044e565b5b610559848285610510565b509392505050565b600082601f83011261057657610575610449565b5b813561058684826020860161051f565b91505092915050565b600080600080608085870312156105a9576105a861043f565b5b600085013567ffffffffffffffff8111156105c7576105c6610444565b5b6105d387828801610561565b945050602085013567ffffffffffffffff8111156105f4576105f3610444565b5b61060087828801610561565b935050604085013567ffffffffffffffff81111561062157610620610444565b5b61062d87828801610561565b925050606085013567ffffffffffffffff81111561064e5761064d610444565b5b61065a87828801610561565b91505092959194509250565b600073ffffffffffffffffffffffffffffffffffffffff82169050919050565b600061069182610666565b9050919050565b6106a181610686565b82525050565b600081519050919050565b600082825260208201905092915050565b60005b838110156106e15780820151818401526020810190506106c6565b838111156106f0576000848401525b50505050565b6000610701826106a7565b61070b81856106b2565b935061071b8185602086016106c3565b61072481610453565b840191505092915050565b60006080820190506107446000830187610698565b818103602083015261075681866106f6565b9050818103604083015261076a81856106f6565b9050818103606083015261077e81846106f6565b905095945050505050565b7f596f7527726520616c7265616479207369676e65642075700000000000000000600082015250565b60006107bf6018836106b2565b91506107ca82610789565b602082019050919050565b600060208201905081810360008301526107ee816107b2565b9050919050565b7f4e487b7100000000000000000000000000000000000000000000000000000000600052602260045260246000fd5b6000600282049050600182168061083c57607f821691505b602082108114156108505761084f6107f5565b5b5091905056fea2646970667358221220cce41df87d1778d736c74a77db09705b30361123d4e6308dab1123ee7aa8885764736f6c63430008090033",
  "immutableReferences": {},
  "source": "pragma solidity 0.8.9;\r\n\r\ncontract Authentication {\r\n\r\n    uint public nbrUsers;\r\n\r\n    struct User{\r\n        address addressAccount;\r\n        string password;\r\n        string firstName;\r\n        string familyName;\r\n        string typeUser;\r\n    }\r\n\r\n    mapping(address => User) private users;\r\n\r\n    modifier youCanSignUp() {\r\n        require(users[msg.sender].addressAccount != msg.sender, \"You're already signed up\");\r\n        _;\r\n    }\r\n\r\n    constructor () {\r\n        nbrUsers = 0;\r\n    }\r\n\r\n    function signUp(string memory _password, string memory _firstName, string memory _familyName, string memory _typeUser)\r\n    public youCanSignUp()\r\n    returns (address, string memory, string memory, string memory) {\r\n        users[msg.sender].addressAccount = msg.sender;\r\n        users[msg.sender].password = _password;\r\n        users[msg.sender].firstName = _firstName;\r\n        users[msg.sender].familyName = _familyName;\r\n        users[msg.sender].typeUser = _typeUser;\r\n        return (msg.sender, _firstName, _familyName, _typeUser);\r\n    }\r\n\r\n}\r\n",
  "sourcePath": "C:\\Users\\Baghdad\\Desktop\\MyFutur\\walid-project\\contracts\\Authentication.sol",
  "compiler": {
    "name": "solc",
    "version": "0.8.9+commit.e5eed63a.Emscripten.clang"
  },
  "schemaVersion": "3.4.7",
  "updatedAt": "2022-05-09T22:05:50.009Z",
  "networkType": "ethereum",
  "devdoc": {
    "kind": "dev",
    "methods": {},
    "version": 1
  },
  "userdoc": {
    "kind": "user",
    "methods": {},
    "version": 1
  }
}