{
  "_format": "hh-sol-artifact-1",
  "contractName": "Admin",
  "sourceName": "src/backend/contracts/AdminPanel.sol",
  "abi": [
    {
      "inputs": [
        {
          "internalType": "address",
          "name": "TOKEN_ADDRESS",
          "type": "address"
        }
      ],
      "stateMutability": "nonpayable",
      "type": "constructor"
    },
    {
      "inputs": [
        {
          "internalType": "uint256",
          "name": "amount",
          "type": "uint256"
        },
        {
          "internalType": "uint256",
          "name": "_token_to",
          "type": "uint256"
        }
      ],
      "name": "TransferStudent",
      "outputs": [],
      "stateMutability": "nonpayable",
      "type": "function"
    },
    {
      "inputs": [
        {
          "internalType": "uint256",
          "name": "_token",
          "type": "uint256"
        },
        {
          "internalType": "uint256",
          "name": "amount",
          "type": "uint256"
        }
      ],
      "name": "Transfer_Admin",
      "outputs": [],
      "stateMutability": "nonpayable",
      "type": "function"
    },
    {
      "inputs": [
        {
          "internalType": "string",
          "name": "name",
          "type": "string"
        },
        {
          "internalType": "uint256",
          "name": "batch",
          "type": "uint256"
        },
        {
          "internalType": "address",
          "name": "student_address",
          "type": "address"
        }
      ],
      "name": "addStudent",
      "outputs": [],
      "stateMutability": "nonpayable",
      "type": "function"
    },
    {
      "inputs": [
        {
          "internalType": "uint256",
          "name": "",
          "type": "uint256"
        }
      ],
      "name": "address_Array",
      "outputs": [
        {
          "internalType": "address",
          "name": "",
          "type": "address"
        }
      ],
      "stateMutability": "view",
      "type": "function"
    },
    {
      "inputs": [
        {
          "internalType": "address",
          "name": "_Address",
          "type": "address"
        }
      ],
      "name": "address_to_token",
      "outputs": [
        {
          "internalType": "uint256",
          "name": "",
          "type": "uint256"
        }
      ],
      "stateMutability": "view",
      "type": "function"
    },
    {
      "inputs": [
        {
          "internalType": "address",
          "name": "",
          "type": "address"
        }
      ],
      "name": "address_token",
      "outputs": [
        {
          "internalType": "uint256",
          "name": "",
          "type": "uint256"
        }
      ],
      "stateMutability": "view",
      "type": "function"
    },
    {
      "inputs": [],
      "name": "burnit",
      "outputs": [],
      "stateMutability": "nonpayable",
      "type": "function"
    },
    {
      "inputs": [],
      "name": "getBalance",
      "outputs": [
        {
          "internalType": "uint256",
          "name": "",
          "type": "uint256"
        }
      ],
      "stateMutability": "view",
      "type": "function"
    },
    {
      "inputs": [],
      "name": "getOwner",
      "outputs": [
        {
          "internalType": "address",
          "name": "",
          "type": "address"
        }
      ],
      "stateMutability": "view",
      "type": "function"
    },
    {
      "inputs": [],
      "name": "name_token",
      "outputs": [
        {
          "internalType": "string",
          "name": "",
          "type": "string"
        }
      ],
      "stateMutability": "view",
      "type": "function"
    },
    {
      "inputs": [
        {
          "internalType": "uint256",
          "name": "",
          "type": "uint256"
        }
      ],
      "name": "token_address",
      "outputs": [
        {
          "internalType": "address",
          "name": "",
          "type": "address"
        }
      ],
      "stateMutability": "view",
      "type": "function"
    },
    {
      "inputs": [
        {
          "internalType": "uint256",
          "name": "",
          "type": "uint256"
        }
      ],
      "name": "token_batch",
      "outputs": [
        {
          "internalType": "uint256",
          "name": "",
          "type": "uint256"
        }
      ],
      "stateMutability": "view",
      "type": "function"
    },
    {
      "inputs": [
        {
          "internalType": "uint256",
          "name": "",
          "type": "uint256"
        }
      ],
      "name": "token_name",
      "outputs": [
        {
          "internalType": "string",
          "name": "",
          "type": "string"
        }
      ],
      "stateMutability": "view",
      "type": "function"
    },
    {
      "inputs": [
        {
          "internalType": "uint256",
          "name": "_token",
          "type": "uint256"
        }
      ],
      "name": "token_to_address",
      "outputs": [
        {
          "internalType": "address",
          "name": "",
          "type": "address"
        }
      ],
      "stateMutability": "view",
      "type": "function"
    },
    {
      "inputs": [
        {
          "internalType": "uint256",
          "name": "_token",
          "type": "uint256"
        }
      ],
      "name": "token_to_batch",
      "outputs": [
        {
          "internalType": "uint256",
          "name": "",
          "type": "uint256"
        }
      ],
      "stateMutability": "view",
      "type": "function"
    },
    {
      "inputs": [
        {
          "internalType": "uint256",
          "name": "_token",
          "type": "uint256"
        }
      ],
      "name": "token_to_name",
      "outputs": [
        {
          "internalType": "string",
          "name": "",
          "type": "string"
        }
      ],
      "stateMutability": "view",
      "type": "function"
    },
    {
      "inputs": [],
      "name": "totalPeople",
      "outputs": [
        {
          "internalType": "uint256",
          "name": "",
          "type": "uint256"
        }
      ],
      "stateMutability": "view",
      "type": "function"
    }
  ],
  "bytecode": "0x60806040523480156200001157600080fd5b5060405162001c1e38038062001c1e833981810160405281019062000037919062000168565b33600360006101000a81548173ffffffffffffffffffffffffffffffffffffffff021916908373ffffffffffffffffffffffffffffffffffffffff1602179055506000600481905550600160058190555080600160006101000a81548173ffffffffffffffffffffffffffffffffffffffff021916908373ffffffffffffffffffffffffffffffffffffffff160217905550806000806101000a81548173ffffffffffffffffffffffffffffffffffffffff021916908373ffffffffffffffffffffffffffffffffffffffff16021790555080600260006101000a81548173ffffffffffffffffffffffffffffffffffffffff021916908373ffffffffffffffffffffffffffffffffffffffff16021790555050620001e2565b6000815190506200016281620001c8565b92915050565b6000602082840312156200017b57600080fd5b60006200018b8482850162000151565b91505092915050565b6000620001a182620001a8565b9050919050565b600073ffffffffffffffffffffffffffffffffffffffff82169050919050565b620001d38162000194565b8114620001df57600080fd5b50565b611a2c80620001f26000396000f3fe608060405234801561001057600080fd5b506004361061010b5760003560e01c8063893d20e8116100a2578063c6a6086311610071578063c6a60863146102ba578063d8414686146102ea578063e9e8a17c1461031a578063eeb1275a14610336578063f16cce2a146103665761010b565b8063893d20e81461021e5780639b512f8a1461023c578063a7200e9d1461025a578063bf5bbd1c1461028a5761010b565b8063672727ab116100de578063672727ab1461019857806367eadff4146101c85780637610649c146101d257806382ce473d146102025761010b565b80630e0135b11461011057806312065fe014610140578063186e7f001461015e57806339a7af961461017c575b600080fd5b61012a6004803603810190610125919061138f565b610396565b60405161013791906114dd565b60405180910390f35b6101486103d5565b60405161015591906115da565b60405180910390f35b610166610487565b60405161017391906115da565b60405180910390f35b610196600480360381019061019191906113e1565b610491565b005b6101b260048036038101906101ad919061138f565b610701565b6040516101bf9190611558565b60405180910390f35b6101d06107a1565b005b6101ec60048036038101906101e7919061138f565b6109f5565b6040516101f991906114dd565b60405180910390f35b61021c600480360381019061021791906113e1565b610a28565b005b610226610c85565b60405161023391906114dd565b60405180910390f35b610244610caf565b6040516102519190611558565b60405180910390f35b610274600480360381019061026f919061138f565b610d59565b60405161028191906115da565b60405180910390f35b6102a4600480360381019061029f9190611295565b610d76565b6040516102b191906115da565b60405180910390f35b6102d460048036038101906102cf9190611295565b610dbf565b6040516102e191906115da565b60405180910390f35b61030460048036038101906102ff919061138f565b610dd7565b60405161031191906115da565b60405180910390f35b610334600480360381019061032f9190611328565b610def565b005b610350600480360381019061034b919061138f565b610fec565b60405161035d91906114dd565b60405180910390f35b610380600480360381019061037b919061138f565b611029565b60405161038d9190611558565b60405180910390f35b600a81815481106103a657600080fd5b906000526020600020016000915054906101000a900473ffffffffffffffffffffffffffffffffffffffff1681565b6000600260009054906101000a900473ffffffffffffffffffffffffffffffffffffffff1673ffffffffffffffffffffffffffffffffffffffff166370a08231306040518263ffffffff1660e01b815260040161043291906114dd565b60206040518083038186803b15801561044a57600080fd5b505afa15801561045e573d6000803e3d6000fd5b505050506040513d601f19601f8201168201806040525081019061048291906113b8565b905090565b6000600454905090565b600360009054906101000a900473ffffffffffffffffffffffffffffffffffffffff1673ffffffffffffffffffffffffffffffffffffffff163373ffffffffffffffffffffffffffffffffffffffff1614610521576040517f08c379a00000000000000000000000000000000000000000000000000000000081526004016105189061159a565b60405180910390fd5b6000600260009054906101000a900473ffffffffffffffffffffffffffffffffffffffff1673ffffffffffffffffffffffffffffffffffffffff166370a08231306040518263ffffffff1660e01b815260040161057e91906114dd565b60206040518083038186803b15801561059657600080fd5b505afa1580156105aa573d6000803e3d6000fd5b505050506040513d601f19601f820116820180604052508101906105ce91906113b8565b905081811015610613576040517f08c379a000000000000000000000000000000000000000000000000000000000815260040161060a9061157a565b60405180910390fd5b60006006600085815260200190815260200160002060009054906101000a900473ffffffffffffffffffffffffffffffffffffffff169050600260009054906101000a900473ffffffffffffffffffffffffffffffffffffffff1673ffffffffffffffffffffffffffffffffffffffff1663a9059cbb82856040518363ffffffff1660e01b81526004016106a892919061152f565b602060405180830381600087803b1580156106c257600080fd5b505af11580156106d6573d6000803e3d6000fd5b505050506040513d601f19601f820116820180604052508101906106fa91906112be565b5050505050565b6007602052806000526040600020600091509050805461072090611806565b80601f016020809104026020016040519081016040528092919081815260200182805461074c90611806565b80156107995780601f1061076e57610100808354040283529160200191610799565b820191906000526020600020905b81548152906001019060200180831161077c57829003601f168201915b505050505081565b6000600160046005546107b49190611748565b6107be9190611667565b905060005b6004548110156109f1576000600a8281548110610809577f4e487b7100000000000000000000000000000000000000000000000000000000600052603260045260246000fd5b9060005260206000200160009054906101000a900473ffffffffffffffffffffffffffffffffffffffff1690506000600960008373ffffffffffffffffffffffffffffffffffffffff1673ffffffffffffffffffffffffffffffffffffffff1681526020019081526020016000205490506000600860008381526020019081526020016000205490506000600260009054906101000a900473ffffffffffffffffffffffffffffffffffffffff1673ffffffffffffffffffffffffffffffffffffffff166370a08231856040518263ffffffff1660e01b81526004016108ef91906114dd565b60206040518083038186803b15801561090757600080fd5b505afa15801561091b573d6000803e3d6000fd5b505050506040513d601f19601f8201168201806040525081019061093f91906113b8565b9050858210156109d957600160009054906101000a900473ffffffffffffffffffffffffffffffffffffffff1673ffffffffffffffffffffffffffffffffffffffff16639dc29fac85836040518363ffffffff1660e01b81526004016109a692919061152f565b600060405180830381600087803b1580156109c057600080fd5b505af11580156109d4573d6000803e3d6000fd5b505050505b505050506001816109ea9190611667565b90506107c3565b5050565b60066020528060005260406000206000915054906101000a900473ffffffffffffffffffffffffffffffffffffffff1681565b600033905060006006600084815260200190815260200160002060009054906101000a900473ffffffffffffffffffffffffffffffffffffffff1690506000600960008473ffffffffffffffffffffffffffffffffffffffff1673ffffffffffffffffffffffffffffffffffffffff1681526020019081526020016000205490506000600860008381526020019081526020016000205490506000600860008781526020019081526020016000205490506000818314610ae757601990505b60006064826064610af89190611748565b8a610b0391906116ee565b610b0d91906116bd565b905060008054906101000a900473ffffffffffffffffffffffffffffffffffffffff1673ffffffffffffffffffffffffffffffffffffffff166323b872dd8888846040518463ffffffff1660e01b8152600401610b6c939291906114f8565b602060405180830381600087803b158015610b8657600080fd5b505af1158015610b9a573d6000803e3d6000fd5b505050506040513d601f19601f82011682018060405250810190610bbe91906112be565b5060008054906101000a900473ffffffffffffffffffffffffffffffffffffffff1673ffffffffffffffffffffffffffffffffffffffff166323b872dd8830848d610c099190611748565b6040518463ffffffff1660e01b8152600401610c27939291906114f8565b602060405180830381600087803b158015610c4157600080fd5b505af1158015610c55573d6000803e3d6000fd5b505050506040513d601f19601f82011682018060405250810190610c7991906112be565b50505050505050505050565b6000600360009054906101000a900473ffffffffffffffffffffffffffffffffffffffff16905090565b606060008054906101000a900473ffffffffffffffffffffffffffffffffffffffff1673ffffffffffffffffffffffffffffffffffffffff166306fdde036040518163ffffffff1660e01b815260040160006040518083038186803b158015610d1757600080fd5b505afa158015610d2b573d6000803e3d6000fd5b505050506040513d6000823e3d601f19601f82011682018060405250810190610d5491906112e7565b905090565b600060086000838152602001908152602001600020549050919050565b6000600960008373ffffffffffffffffffffffffffffffffffffffff1673ffffffffffffffffffffffffffffffffffffffff168152602001908152602001600020549050919050565b60096020528060005260406000206000915090505481565b60086020528060005260406000206000915090505481565b600360009054906101000a900473ffffffffffffffffffffffffffffffffffffffff1673ffffffffffffffffffffffffffffffffffffffff163373ffffffffffffffffffffffffffffffffffffffff1614610e7f576040517f08c379a0000000000000000000000000000000000000000000000000000000008152600401610e76906115ba565b60405180910390fd5b600a819080600181540180825580915050600190039060005260206000200160009091909190916101000a81548173ffffffffffffffffffffffffffffffffffffffff021916908373ffffffffffffffffffffffffffffffffffffffff1602179055506001600454610ef19190611667565b6004819055508060066000600454815260200190815260200160002060006101000a81548173ffffffffffffffffffffffffffffffffffffffff021916908373ffffffffffffffffffffffffffffffffffffffff160217905550826007600060045481526020019081526020016000209080519060200190610f749291906110ce565b508160086000600454815260200190815260200160002081905550600454600960008373ffffffffffffffffffffffffffffffffffffffff1673ffffffffffffffffffffffffffffffffffffffff16815260200190815260200160002081905550600554821115610fe757816005819055505b505050565b60006006600083815260200190815260200160002060009054906101000a900473ffffffffffffffffffffffffffffffffffffffff169050919050565b606060076000838152602001908152602001600020805461104990611806565b80601f016020809104026020016040519081016040528092919081815260200182805461107590611806565b80156110c25780601f10611097576101008083540402835291602001916110c2565b820191906000526020600020905b8154815290600101906020018083116110a557829003601f168201915b50505050509050919050565b8280546110da90611806565b90600052602060002090601f0160209004810192826110fc5760008555611143565b82601f1061111557805160ff1916838001178555611143565b82800160010185558215611143579182015b82811115611142578251825591602001919060010190611127565b5b5090506111509190611154565b5090565b5b8082111561116d576000816000905550600101611155565b5090565b600061118461117f8461161a565b6115f5565b90508281526020810184848401111561119c57600080fd5b6111a78482856117c4565b509392505050565b60006111c26111bd8461161a565b6115f5565b9050828152602081018484840111156111da57600080fd5b6111e58482856117d3565b509392505050565b6000813590506111fc816119b1565b92915050565b600081519050611211816119c8565b92915050565b600082601f83011261122857600080fd5b8135611238848260208601611171565b91505092915050565b600082601f83011261125257600080fd5b81516112628482602086016111af565b91505092915050565b60008135905061127a816119df565b92915050565b60008151905061128f816119df565b92915050565b6000602082840312156112a757600080fd5b60006112b5848285016111ed565b91505092915050565b6000602082840312156112d057600080fd5b60006112de84828501611202565b91505092915050565b6000602082840312156112f957600080fd5b600082015167ffffffffffffffff81111561131357600080fd5b61131f84828501611241565b91505092915050565b60008060006060848603121561133d57600080fd5b600084013567ffffffffffffffff81111561135757600080fd5b61136386828701611217565b93505060206113748682870161126b565b9250506040611385868287016111ed565b9150509250925092565b6000602082840312156113a157600080fd5b60006113af8482850161126b565b91505092915050565b6000602082840312156113ca57600080fd5b60006113d884828501611280565b91505092915050565b600080604083850312156113f457600080fd5b60006114028582860161126b565b92505060206114138582860161126b565b9150509250929050565b6114268161177c565b82525050565b60006114378261164b565b6114418185611656565b93506114518185602086016117d3565b61145a81611925565b840191505092915050565b6000611472601483611656565b915061147d82611936565b602082019050919050565b6000611495601583611656565b91506114a08261195f565b602082019050919050565b60006114b8600d83611656565b91506114c382611988565b602082019050919050565b6114d7816117ba565b82525050565b60006020820190506114f2600083018461141d565b92915050565b600060608201905061150d600083018661141d565b61151a602083018561141d565b61152760408301846114ce565b949350505050565b6000604082019050611544600083018561141d565b61155160208301846114ce565b9392505050565b60006020820190508181036000830152611572818461142c565b905092915050565b6000602082019050818103600083015261159381611465565b9050919050565b600060208201905081810360008301526115b381611488565b9050919050565b600060208201905081810360008301526115d3816114ab565b9050919050565b60006020820190506115ef60008301846114ce565b92915050565b60006115ff611610565b905061160b8282611838565b919050565b6000604051905090565b600067ffffffffffffffff821115611635576116346118f6565b5b61163e82611925565b9050602081019050919050565b600081519050919050565b600082825260208201905092915050565b6000611672826117ba565b915061167d836117ba565b9250827fffffffffffffffffffffffffffffffffffffffffffffffffffffffffffffffff038211156116b2576116b1611869565b5b828201905092915050565b60006116c8826117ba565b91506116d3836117ba565b9250826116e3576116e2611898565b5b828204905092915050565b60006116f9826117ba565b9150611704836117ba565b9250817fffffffffffffffffffffffffffffffffffffffffffffffffffffffffffffffff048311821515161561173d5761173c611869565b5b828202905092915050565b6000611753826117ba565b915061175e836117ba565b92508282101561177157611770611869565b5b828203905092915050565b60006117878261179a565b9050919050565b60008115159050919050565b600073ffffffffffffffffffffffffffffffffffffffff82169050919050565b6000819050919050565b82818337600083830152505050565b60005b838110156117f15780820151818401526020810190506117d6565b83811115611800576000848401525b50505050565b6000600282049050600182168061181e57607f821691505b60208210811415611832576118316118c7565b5b50919050565b61184182611925565b810181811067ffffffffffffffff821117156118605761185f6118f6565b5b80604052505050565b7f4e487b7100000000000000000000000000000000000000000000000000000000600052601160045260246000fd5b7f4e487b7100000000000000000000000000000000000000000000000000000000600052601260045260246000fd5b7f4e487b7100000000000000000000000000000000000000000000000000000000600052602260045260246000fd5b7f4e487b7100000000000000000000000000000000000000000000000000000000600052604160045260246000fd5b6000601f19601f8301169050919050565b7f496e73756666696369656e742062616c616e6365000000000000000000000000600082015250565b7f596f7520617265206e6f7420746865206f776e65720000000000000000000000600082015250565b7f596f752063616e27742061646400000000000000000000000000000000000000600082015250565b6119ba8161177c565b81146119c557600080fd5b50565b6119d18161178e565b81146119dc57600080fd5b50565b6119e8816117ba565b81146119f357600080fd5b5056fea2646970667358221220e919cad3964f7c5c84528e2a199870115a3c88935f64132435c585f87106907664736f6c63430008040033",
  "linkReferences": {},
  "deployedLinkReferences": {}
}