{
  "_format": "hh-sol-artifact-1",
  "contractName": "FST",
  "sourceName": "src/backend/contracts/AdminPanel.sol",
  "abi": [
    {
      "inputs": [
        {
          "internalType": "uint256",
          "name": "initialSupply",
          "type": "uint256"
        }
      ],
      "stateMutability": "nonpayable",
      "type": "constructor"
    },
    {
      "anonymous": false,
      "inputs": [
        {
          "indexed": true,
          "internalType": "address",
          "name": "owner",
          "type": "address"
        },
        {
          "indexed": true,
          "internalType": "address",
          "name": "spender",
          "type": "address"
        },
        {
          "indexed": false,
          "internalType": "uint256",
          "name": "value",
          "type": "uint256"
        }
      ],
      "name": "Approval",
      "type": "event"
    },
    {
      "anonymous": false,
      "inputs": [
        {
          "indexed": true,
          "internalType": "address",
          "name": "from",
          "type": "address"
        },
        {
          "indexed": true,
          "internalType": "address",
          "name": "to",
          "type": "address"
        },
        {
          "indexed": false,
          "internalType": "uint256",
          "name": "value",
          "type": "uint256"
        }
      ],
      "name": "Transfer",
      "type": "event"
    },
    {
      "inputs": [
        {
          "internalType": "address",
          "name": "owner",
          "type": "address"
        },
        {
          "internalType": "address",
          "name": "spender",
          "type": "address"
        }
      ],
      "name": "allowance",
      "outputs": [
        {
          "internalType": "uint256",
          "name": "",
          "type": "uint256"
        }
      ],
      "stateMutability": "view",
      "type": "function"
    },
    {
      "inputs": [
        {
          "internalType": "address",
          "name": "spender",
          "type": "address"
        },
        {
          "internalType": "uint256",
          "name": "amount",
          "type": "uint256"
        }
      ],
      "name": "approve",
      "outputs": [
        {
          "internalType": "bool",
          "name": "",
          "type": "bool"
        }
      ],
      "stateMutability": "nonpayable",
      "type": "function"
    },
    {
      "inputs": [
        {
          "internalType": "address",
          "name": "account",
          "type": "address"
        }
      ],
      "name": "balanceOf",
      "outputs": [
        {
          "internalType": "uint256",
          "name": "",
          "type": "uint256"
        }
      ],
      "stateMutability": "view",
      "type": "function"
    },
    {
      "inputs": [
        {
          "internalType": "address",
          "name": "from",
          "type": "address"
        },
        {
          "internalType": "uint256",
          "name": "amount",
          "type": "uint256"
        }
      ],
      "name": "burn",
      "outputs": [],
      "stateMutability": "nonpayable",
      "type": "function"
    },
    {
      "inputs": [],
      "name": "decimals",
      "outputs": [
        {
          "internalType": "uint8",
          "name": "",
          "type": "uint8"
        }
      ],
      "stateMutability": "view",
      "type": "function"
    },
    {
      "inputs": [
        {
          "internalType": "address",
          "name": "spender",
          "type": "address"
        },
        {
          "internalType": "uint256",
          "name": "subtractedValue",
          "type": "uint256"
        }
      ],
      "name": "decreaseAllowance",
      "outputs": [
        {
          "internalType": "bool",
          "name": "",
          "type": "bool"
        }
      ],
      "stateMutability": "nonpayable",
      "type": "function"
    },
    {
      "inputs": [
        {
          "internalType": "address",
          "name": "spender",
          "type": "address"
        },
        {
          "internalType": "uint256",
          "name": "addedValue",
          "type": "uint256"
        }
      ],
      "name": "increaseAllowance",
      "outputs": [
        {
          "internalType": "bool",
          "name": "",
          "type": "bool"
        }
      ],
      "stateMutability": "nonpayable",
      "type": "function"
    },
    {
      "inputs": [],
      "name": "name",
      "outputs": [
        {
          "internalType": "string",
          "name": "",
          "type": "string"
        }
      ],
      "stateMutability": "view",
      "type": "function"
    },
    {
      "inputs": [],
      "name": "symbol",
      "outputs": [
        {
          "internalType": "string",
          "name": "",
          "type": "string"
        }
      ],
      "stateMutability": "view",
      "type": "function"
    },
    {
      "inputs": [],
      "name": "totalSupply",
      "outputs": [
        {
          "internalType": "uint256",
          "name": "",
          "type": "uint256"
        }
      ],
      "stateMutability": "view",
      "type": "function"
    },
    {
      "inputs": [
        {
          "internalType": "address",
          "name": "to",
          "type": "address"
        },
        {
          "internalType": "uint256",
          "name": "amount",
          "type": "uint256"
        }
      ],
      "name": "transfer",
      "outputs": [
        {
          "internalType": "bool",
          "name": "",
          "type": "bool"
        }
      ],
      "stateMutability": "nonpayable",
      "type": "function"
    },
    {
      "inputs": [
        {
          "internalType": "address",
          "name": "from",
          "type": "address"
        },
        {
          "internalType": "address",
          "name": "to",
          "type": "address"
        },
        {
          "internalType": "uint256",
          "name": "amount",
          "type": "uint256"
        }
      ],
      "name": "transferFrom",
      "outputs": [
        {
          "internalType": "bool",
          "name": "",
          "type": "bool"
        }
      ],
      "stateMutability": "nonpayable",
      "type": "function"
    }
  ],
  "bytecode": "0x60806040523480156200001157600080fd5b5060405162001aa238038062001aa283398181016040528101906200003791906200032f565b6040518060400160405280600981526020017f53796e64696361746500000000000000000000000000000000000000000000008152506040518060400160405280600381526020017f53796e00000000000000000000000000000000000000000000000000000000008152508160039080519060200190620000bb92919062000268565b508060049080519060200190620000d492919062000268565b505050620000e93382620000f060201b60201c565b5062000521565b600073ffffffffffffffffffffffffffffffffffffffff168273ffffffffffffffffffffffffffffffffffffffff16141562000163576040517f08c379a00000000000000000000000000000000000000000000000000000000081526004016200015a9062000393565b60405180910390fd5b62000177600083836200025e60201b60201c565b80600260008282546200018b9190620003e3565b92505081905550806000808473ffffffffffffffffffffffffffffffffffffffff1673ffffffffffffffffffffffffffffffffffffffff168152602001908152602001600020600082825401925050819055508173ffffffffffffffffffffffffffffffffffffffff16600073ffffffffffffffffffffffffffffffffffffffff167fddf252ad1be2c89b69c2b068fc378daa952ba7f163c4a11628f55a4df523b3ef836040516200023e9190620003b5565b60405180910390a36200025a600083836200026360201b60201c565b5050565b505050565b505050565b82805462000276906200044a565b90600052602060002090601f0160209004810192826200029a5760008555620002e6565b82601f10620002b557805160ff1916838001178555620002e6565b82800160010185558215620002e6579182015b82811115620002e5578251825591602001919060010190620002c8565b5b509050620002f59190620002f9565b5090565b5b8082111562000314576000816000905550600101620002fa565b5090565b600081519050620003298162000507565b92915050565b6000602082840312156200034257600080fd5b6000620003528482850162000318565b91505092915050565b60006200036a601f83620003d2565b91506200037782620004de565b602082019050919050565b6200038d8162000440565b82525050565b60006020820190508181036000830152620003ae816200035b565b9050919050565b6000602082019050620003cc600083018462000382565b92915050565b600082825260208201905092915050565b6000620003f08262000440565b9150620003fd8362000440565b9250827fffffffffffffffffffffffffffffffffffffffffffffffffffffffffffffffff0382111562000435576200043462000480565b5b828201905092915050565b6000819050919050565b600060028204905060018216806200046357607f821691505b602082108114156200047a5762000479620004af565b5b50919050565b7f4e487b7100000000000000000000000000000000000000000000000000000000600052601160045260246000fd5b7f4e487b7100000000000000000000000000000000000000000000000000000000600052602260045260246000fd5b7f45524332303a206d696e7420746f20746865207a65726f206164647265737300600082015250565b620005128162000440565b81146200051e57600080fd5b50565b61157180620005316000396000f3fe608060405234801561001057600080fd5b50600436106100b45760003560e01c806370a082311161007157806370a08231146101a357806395d89b41146101d35780639dc29fac146101f1578063a457c2d71461020d578063a9059cbb1461023d578063dd62ed3e1461026d576100b4565b806306fdde03146100b9578063095ea7b3146100d757806318160ddd1461010757806323b872dd14610125578063313ce567146101555780633950935114610173575b600080fd5b6100c161029d565b6040516100ce9190610f59565b60405180910390f35b6100f160048036038101906100ec9190610d61565b61032f565b6040516100fe9190610f3e565b60405180910390f35b61010f610352565b60405161011c919061109b565b60405180910390f35b61013f600480360381019061013a9190610d12565b61035c565b60405161014c9190610f3e565b60405180910390f35b61015d61038b565b60405161016a91906110b6565b60405180910390f35b61018d60048036038101906101889190610d61565b610394565b60405161019a9190610f3e565b60405180910390f35b6101bd60048036038101906101b89190610cad565b6103cb565b6040516101ca919061109b565b60405180910390f35b6101db610413565b6040516101e89190610f59565b60405180910390f35b61020b60048036038101906102069190610d61565b6104a5565b005b61022760048036038101906102229190610d61565b6104b3565b6040516102349190610f3e565b60405180910390f35b61025760048036038101906102529190610d61565b61052a565b6040516102649190610f3e565b60405180910390f35b61028760048036038101906102829190610cd6565b61054d565b604051610294919061109b565b60405180910390f35b6060600380546102ac906111cb565b80601f01602080910402602001604051908101604052809291908181526020018280546102d8906111cb565b80156103255780601f106102fa57610100808354040283529160200191610325565b820191906000526020600020905b81548152906001019060200180831161030857829003601f168201915b5050505050905090565b60008061033a6105d4565b90506103478185856105dc565b600191505092915050565b6000600254905090565b6000806103676105d4565b90506103748582856107a7565b61037f858585610833565b60019150509392505050565b60006012905090565b60008061039f6105d4565b90506103c08185856103b1858961054d565b6103bb91906110ed565b6105dc565b600191505092915050565b60008060008373ffffffffffffffffffffffffffffffffffffffff1673ffffffffffffffffffffffffffffffffffffffff168152602001908152602001600020549050919050565b606060048054610422906111cb565b80601f016020809104026020016040519081016040528092919081815260200182805461044e906111cb565b801561049b5780601f106104705761010080835404028352916020019161049b565b820191906000526020600020905b81548152906001019060200180831161047e57829003601f168201915b5050505050905090565b6104af8282610aab565b5050565b6000806104be6105d4565b905060006104cc828661054d565b905083811015610511576040517f08c379a00000000000000000000000000000000000000000000000000000000081526004016105089061107b565b60405180910390fd5b61051e82868684036105dc565b60019250505092915050565b6000806105356105d4565b9050610542818585610833565b600191505092915050565b6000600160008473ffffffffffffffffffffffffffffffffffffffff1673ffffffffffffffffffffffffffffffffffffffff16815260200190815260200160002060008373ffffffffffffffffffffffffffffffffffffffff1673ffffffffffffffffffffffffffffffffffffffff16815260200190815260200160002054905092915050565b600033905090565b600073ffffffffffffffffffffffffffffffffffffffff168373ffffffffffffffffffffffffffffffffffffffff16141561064c576040517f08c379a00000000000000000000000000000000000000000000000000000000081526004016106439061105b565b60405180910390fd5b600073ffffffffffffffffffffffffffffffffffffffff168273ffffffffffffffffffffffffffffffffffffffff1614156106bc576040517f08c379a00000000000000000000000000000000000000000000000000000000081526004016106b390610fbb565b60405180910390fd5b80600160008573ffffffffffffffffffffffffffffffffffffffff1673ffffffffffffffffffffffffffffffffffffffff16815260200190815260200160002060008473ffffffffffffffffffffffffffffffffffffffff1673ffffffffffffffffffffffffffffffffffffffff168152602001908152602001600020819055508173ffffffffffffffffffffffffffffffffffffffff168373ffffffffffffffffffffffffffffffffffffffff167f8c5be1e5ebec7d5bd14f71427d1e84f3dd0314c0f7b2291e5b200ac8c7c3b9258360405161079a919061109b565b60405180910390a3505050565b60006107b3848461054d565b90507fffffffffffffffffffffffffffffffffffffffffffffffffffffffffffffffff811461082d578181101561081f576040517f08c379a000000000000000000000000000000000000000000000000000000000815260040161081690610fdb565b60405180910390fd5b61082c84848484036105dc565b5b50505050565b600073ffffffffffffffffffffffffffffffffffffffff168373ffffffffffffffffffffffffffffffffffffffff1614156108a3576040517f08c379a000000000000000000000000000000000000000000000000000000000815260040161089a9061103b565b60405180910390fd5b600073ffffffffffffffffffffffffffffffffffffffff168273ffffffffffffffffffffffffffffffffffffffff161415610913576040517f08c379a000000000000000000000000000000000000000000000000000000000815260040161090a90610f7b565b60405180910390fd5b61091e838383610c79565b60008060008573ffffffffffffffffffffffffffffffffffffffff1673ffffffffffffffffffffffffffffffffffffffff168152602001908152602001600020549050818110156109a4576040517f08c379a000000000000000000000000000000000000000000000000000000000815260040161099b90610ffb565b60405180910390fd5b8181036000808673ffffffffffffffffffffffffffffffffffffffff1673ffffffffffffffffffffffffffffffffffffffff16815260200190815260200160002081905550816000808573ffffffffffffffffffffffffffffffffffffffff1673ffffffffffffffffffffffffffffffffffffffff168152602001908152602001600020600082825401925050819055508273ffffffffffffffffffffffffffffffffffffffff168473ffffffffffffffffffffffffffffffffffffffff167fddf252ad1be2c89b69c2b068fc378daa952ba7f163c4a11628f55a4df523b3ef84604051610a92919061109b565b60405180910390a3610aa5848484610c7e565b50505050565b600073ffffffffffffffffffffffffffffffffffffffff168273ffffffffffffffffffffffffffffffffffffffff161415610b1b576040517f08c379a0000000000000000000000000000000000000000000000000000000008152600401610b129061101b565b60405180910390fd5b610b2782600083610c79565b60008060008473ffffffffffffffffffffffffffffffffffffffff1673ffffffffffffffffffffffffffffffffffffffff16815260200190815260200160002054905081811015610bad576040517f08c379a0000000000000000000000000000000000000000000000000000000008152600401610ba490610f9b565b60405180910390fd5b8181036000808573ffffffffffffffffffffffffffffffffffffffff1673ffffffffffffffffffffffffffffffffffffffff1681526020019081526020016000208190555081600260008282540392505081905550600073ffffffffffffffffffffffffffffffffffffffff168373ffffffffffffffffffffffffffffffffffffffff167fddf252ad1be2c89b69c2b068fc378daa952ba7f163c4a11628f55a4df523b3ef84604051610c60919061109b565b60405180910390a3610c7483600084610c7e565b505050565b505050565b505050565b600081359050610c928161150d565b92915050565b600081359050610ca781611524565b92915050565b600060208284031215610cbf57600080fd5b6000610ccd84828501610c83565b91505092915050565b60008060408385031215610ce957600080fd5b6000610cf785828601610c83565b9250506020610d0885828601610c83565b9150509250929050565b600080600060608486031215610d2757600080fd5b6000610d3586828701610c83565b9350506020610d4686828701610c83565b9250506040610d5786828701610c98565b9150509250925092565b60008060408385031215610d7457600080fd5b6000610d8285828601610c83565b9250506020610d9385828601610c98565b9150509250929050565b610da681611155565b82525050565b6000610db7826110d1565b610dc181856110dc565b9350610dd1818560208601611198565b610dda8161125b565b840191505092915050565b6000610df26023836110dc565b9150610dfd8261126c565b604082019050919050565b6000610e156022836110dc565b9150610e20826112bb565b604082019050919050565b6000610e386022836110dc565b9150610e438261130a565b604082019050919050565b6000610e5b601d836110dc565b9150610e6682611359565b602082019050919050565b6000610e7e6026836110dc565b9150610e8982611382565b604082019050919050565b6000610ea16021836110dc565b9150610eac826113d1565b604082019050919050565b6000610ec46025836110dc565b9150610ecf82611420565b604082019050919050565b6000610ee76024836110dc565b9150610ef28261146f565b604082019050919050565b6000610f0a6025836110dc565b9150610f15826114be565b604082019050919050565b610f2981611181565b82525050565b610f388161118b565b82525050565b6000602082019050610f536000830184610d9d565b92915050565b60006020820190508181036000830152610f738184610dac565b905092915050565b60006020820190508181036000830152610f9481610de5565b9050919050565b60006020820190508181036000830152610fb481610e08565b9050919050565b60006020820190508181036000830152610fd481610e2b565b9050919050565b60006020820190508181036000830152610ff481610e4e565b9050919050565b6000602082019050818103600083015261101481610e71565b9050919050565b6000602082019050818103600083015261103481610e94565b9050919050565b6000602082019050818103600083015261105481610eb7565b9050919050565b6000602082019050818103600083015261107481610eda565b9050919050565b6000602082019050818103600083015261109481610efd565b9050919050565b60006020820190506110b06000830184610f20565b92915050565b60006020820190506110cb6000830184610f2f565b92915050565b600081519050919050565b600082825260208201905092915050565b60006110f882611181565b915061110383611181565b9250827fffffffffffffffffffffffffffffffffffffffffffffffffffffffffffffffff03821115611138576111376111fd565b5b828201905092915050565b600061114e82611161565b9050919050565b60008115159050919050565b600073ffffffffffffffffffffffffffffffffffffffff82169050919050565b6000819050919050565b600060ff82169050919050565b60005b838110156111b657808201518184015260208101905061119b565b838111156111c5576000848401525b50505050565b600060028204905060018216806111e357607f821691505b602082108114156111f7576111f661122c565b5b50919050565b7f4e487b7100000000000000000000000000000000000000000000000000000000600052601160045260246000fd5b7f4e487b7100000000000000000000000000000000000000000000000000000000600052602260045260246000fd5b6000601f19601f8301169050919050565b7f45524332303a207472616e7366657220746f20746865207a65726f206164647260008201527f6573730000000000000000000000000000000000000000000000000000000000602082015250565b7f45524332303a206275726e20616d6f756e7420657863656564732062616c616e60008201527f6365000000000000000000000000000000000000000000000000000000000000602082015250565b7f45524332303a20617070726f766520746f20746865207a65726f20616464726560008201527f7373000000000000000000000000000000000000000000000000000000000000602082015250565b7f45524332303a20696e73756666696369656e7420616c6c6f77616e6365000000600082015250565b7f45524332303a207472616e7366657220616d6f756e742065786365656473206260008201527f616c616e63650000000000000000000000000000000000000000000000000000602082015250565b7f45524332303a206275726e2066726f6d20746865207a65726f2061646472657360008201527f7300000000000000000000000000000000000000000000000000000000000000602082015250565b7f45524332303a207472616e736665722066726f6d20746865207a65726f20616460008201527f6472657373000000000000000000000000000000000000000000000000000000602082015250565b7f45524332303a20617070726f76652066726f6d20746865207a65726f2061646460008201527f7265737300000000000000000000000000000000000000000000000000000000602082015250565b7f45524332303a2064656372656173656420616c6c6f77616e63652062656c6f7760008201527f207a65726f000000000000000000000000000000000000000000000000000000602082015250565b61151681611143565b811461152157600080fd5b50565b61152d81611181565b811461153857600080fd5b5056fea264697066735822122051bddbda0eb7eb5ea8f1d19ddeb247cdde79423faaecfb9757209af138f8718264736f6c63430008040033",
  "linkReferences": {},
  "deployedLinkReferences": {}
}